{
  "contractName": "PiggyFi",
  "abi": [
    {
      "anonymous": false,
      "inputs": [
        {
          "indexed": true,
          "internalType": "address",
          "name": "previousOwner",
          "type": "address"
        },
        {
          "indexed": true,
          "internalType": "address",
          "name": "newOwner",
          "type": "address"
        }
      ],
      "name": "OwnershipTransferred",
      "type": "event"
    },
    {
      "anonymous": false,
      "inputs": [
        {
          "indexed": true,
          "internalType": "address",
          "name": "signer",
          "type": "address"
        },
        {
          "indexed": true,
          "internalType": "string",
          "name": "action",
          "type": "string"
        }
      ],
      "name": "SignatureExtracted",
      "type": "event"
    },
    {
      "inputs": [],
      "name": "owner",
      "outputs": [
        {
          "internalType": "address",
          "name": "",
          "type": "address"
        }
      ],
      "stateMutability": "view",
      "type": "function"
    },
    {
      "inputs": [],
      "name": "renounceOwnership",
      "outputs": [],
      "stateMutability": "nonpayable",
      "type": "function"
    },
    {
      "inputs": [
        {
          "internalType": "address",
          "name": "newOwner",
          "type": "address"
        }
      ],
      "name": "transferOwnership",
      "outputs": [],
      "stateMutability": "nonpayable",
      "type": "function"
    },
    {
      "inputs": [
        {
          "internalType": "string",
          "name": "_name",
          "type": "string"
        },
        {
          "internalType": "string",
          "name": "_version",
          "type": "string"
        },
        {
          "internalType": "uint256",
          "name": "_chainId",
          "type": "uint256"
        }
      ],
      "name": "__PiggyFi_init",
      "outputs": [],
      "stateMutability": "nonpayable",
      "type": "function"
    },
    {
      "inputs": [
        {
          "components": [
            {
              "internalType": "string",
              "name": "username",
              "type": "string"
            },
            {
              "internalType": "string",
              "name": "action",
              "type": "string"
            }
          ],
          "internalType": "struct PiggyFi.Auth",
          "name": "_auth",
          "type": "tuple"
        },
        {
          "components": [
            {
              "internalType": "uint8",
              "name": "v",
              "type": "uint8"
            },
            {
              "internalType": "bytes32",
              "name": "r",
              "type": "bytes32"
            },
            {
              "internalType": "bytes32",
              "name": "s",
              "type": "bytes32"
            }
          ],
          "internalType": "struct PiggyFi.Credentials",
          "name": "_credential",
          "type": "tuple"
        }
      ],
      "name": "getSigner",
      "outputs": [
        {
          "internalType": "address",
          "name": "signer",
          "type": "address"
        }
      ],
      "stateMutability": "nonpayable",
      "type": "function"
    },
    {
      "inputs": [
        {
          "components": [
            {
              "internalType": "address",
              "name": "publicKey",
              "type": "address"
            },
            {
              "internalType": "string",
              "name": "username",
              "type": "string"
            },
            {
              "internalType": "uint256",
              "name": "daiBalance",
              "type": "uint256"
            },
            {
              "internalType": "uint256",
              "name": "underlyingBalance",
              "type": "uint256"
            },
            {
              "internalType": "uint256",
              "name": "vTokenBalance",
              "type": "uint256"
            }
          ],
          "internalType": "struct PiggyFi.User",
          "name": "_user",
          "type": "tuple"
        }
      ],
      "name": "newUser",
      "outputs": [
        {
          "components": [
            {
              "internalType": "address",
              "name": "publicKey",
              "type": "address"
            },
            {
              "internalType": "string",
              "name": "username",
              "type": "string"
            },
            {
              "internalType": "uint256",
              "name": "daiBalance",
              "type": "uint256"
            },
            {
              "internalType": "uint256",
              "name": "underlyingBalance",
              "type": "uint256"
            },
            {
              "internalType": "uint256",
              "name": "vTokenBalance",
              "type": "uint256"
            }
          ],
          "internalType": "struct PiggyFi.User",
          "name": "profile",
          "type": "tuple"
        }
      ],
      "stateMutability": "nonpayable",
      "type": "function"
    }
  ],
  "bytecode": "0x608060405234801561001057600080fd5b506111f6806100206000396000f3fe608060405234801561001057600080fd5b50600436106100625760003560e01c806344119c3d14610067578063715018a6146100975780638da5cb5b146100a1578063ab4bd219146100bf578063e720e243146100ef578063f2fde38b1461010b575b600080fd5b610081600480360381019061007c9190610a8b565b610127565b60405161008e9190610e0b565b60405180910390f35b61009f6101f1565b005b6100a961032e565b6040516100b69190610e0b565b60405180910390f35b6100d960048036038101906100d49190610adf565b610358565b6040516100e69190610f55565b60405180910390f35b61010960048036038101906101049190610a0c565b610365565b005b610125600480360381019061012091906109e3565b610500565b005b60006001610134846106ac565b836000015184602001518560400151604051600081526020016040526040516101609493929190610eb0565b6020604051602081039080840390855afa158015610182573d6000803e3d6000fd5b50505060206040510351905082602001516040516101a09190610dbd565b60405180910390208173ffffffffffffffffffffffffffffffffffffffff167fdb245a39bba5173f382039efd2845ceb457e5d8d94d37f0042a2f1aebca83b4360405160405180910390a392915050565b6101f961075e565b73ffffffffffffffffffffffffffffffffffffffff1661021761032e565b73ffffffffffffffffffffffffffffffffffffffff161461026d576040517f08c379a000000000000000000000000000000000000000000000000000000000815260040161026490610f35565b60405180910390fd5b600073ffffffffffffffffffffffffffffffffffffffff16603360009054906101000a900473ffffffffffffffffffffffffffffffffffffffff1673ffffffffffffffffffffffffffffffffffffffff167f8be0079c531659141344cd1fd0a4f28419497f9722a3daafe3b4186f6b6457e060405160405180910390a36000603360006101000a81548173ffffffffffffffffffffffffffffffffffffffff021916908373ffffffffffffffffffffffffffffffffffffffff160217905550565b6000603360009054906101000a900473ffffffffffffffffffffffffffffffffffffffff16905090565b610360610766565b919050565b600060019054906101000a900460ff168061038b575060008054906101000a900460ff16155b6103ca576040517f08c379a00000000000000000000000000000000000000000000000000000000081526004016103c190610f15565b60405180910390fd5b60008060019054906101000a900460ff16159050801561041a576001600060016101000a81548160ff02191690831515021790555060016000806101000a81548160ff0219169083151502179055505b60405180608001604052806052815260200161116f605291396040516020016104439190610dbd565b604051602081830303815290604052805190602001208460405160200161046a9190610dbd565b60405160208183030381529060405280519060200120846040516020016104919190610dbd565b6040516020818303038152906040528051906020012084306040516020016104bd959493929190610e5d565b6040516020818303038152906040528051906020012060658190555080156104fa5760008060016101000a81548160ff0219169083151502179055505b50505050565b61050861075e565b73ffffffffffffffffffffffffffffffffffffffff1661052661032e565b73ffffffffffffffffffffffffffffffffffffffff161461057c576040517f08c379a000000000000000000000000000000000000000000000000000000000815260040161057390610f35565b60405180910390fd5b600073ffffffffffffffffffffffffffffffffffffffff168173ffffffffffffffffffffffffffffffffffffffff1614156105ec576040517f08c379a00000000000000000000000000000000000000000000000000000000081526004016105e390610ef5565b60405180910390fd5b8073ffffffffffffffffffffffffffffffffffffffff16603360009054906101000a900473ffffffffffffffffffffffffffffffffffffffff1673ffffffffffffffffffffffffffffffffffffffff167f8be0079c531659141344cd1fd0a4f28419497f9722a3daafe3b4186f6b6457e060405160405180910390a380603360006101000a81548173ffffffffffffffffffffffffffffffffffffffff021916908373ffffffffffffffffffffffffffffffffffffffff16021790555050565b600060655460405180606001604052806023815260200161114c602391396040516020016106da9190610dbd565b6040516020818303038152906040528051906020012083600001518051906020012084602001518051906020012060405160200161071a93929190610e26565b60405160208183030381529060405280519060200120604051602001610741929190610dd4565b604051602081830303815290604052805190602001209050919050565b600033905090565b6040518060a00160405280600073ffffffffffffffffffffffffffffffffffffffff168152602001606081526020016000815260200160008152602001600081525090565b60006107be6107b984610fa8565b610f77565b9050828152602081018484840111156107d657600080fd5b6107e1848285611063565b509392505050565b6000813590506107f8816110ef565b92915050565b60008135905061080d81611106565b92915050565b600082601f83011261082457600080fd5b81356108348482602086016107ab565b91505092915050565b60006040828403121561084f57600080fd5b6108596040610f77565b9050600082013567ffffffffffffffff81111561087557600080fd5b61088184828501610813565b600083015250602082013567ffffffffffffffff8111156108a157600080fd5b6108ad84828501610813565b60208301525092915050565b6000606082840312156108cb57600080fd5b6108d56060610f77565b905060006108e5848285016109ce565b60008301525060206108f9848285016107fe565b602083015250604061090d848285016107fe565b60408301525092915050565b600060a0828403121561092b57600080fd5b61093560a0610f77565b90506000610945848285016107e9565b600083015250602082013567ffffffffffffffff81111561096557600080fd5b61097184828501610813565b6020830152506040610985848285016109b9565b6040830152506060610999848285016109b9565b60608301525060806109ad848285016109b9565b60808301525092915050565b6000813590506109c88161111d565b92915050565b6000813590506109dd81611134565b92915050565b6000602082840312156109f557600080fd5b6000610a03848285016107e9565b91505092915050565b600080600060608486031215610a2157600080fd5b600084013567ffffffffffffffff811115610a3b57600080fd5b610a4786828701610813565b935050602084013567ffffffffffffffff811115610a6457600080fd5b610a7086828701610813565b9250506040610a81868287016109b9565b9150509250925092565b60008060808385031215610a9e57600080fd5b600083013567ffffffffffffffff811115610ab857600080fd5b610ac48582860161083d565b9250506020610ad5858286016108b9565b9150509250929050565b600060208284031215610af157600080fd5b600082013567ffffffffffffffff811115610b0b57600080fd5b610b1784828501610919565b91505092915050565b610b2981611010565b82525050565b610b3881611010565b82525050565b610b4781611022565b82525050565b610b5e610b5982611022565b6110a5565b82525050565b6000610b6f82610fd8565b610b798185610fe3565b9350610b89818560208601611072565b610b92816110de565b840191505092915050565b6000610ba882610fd8565b610bb28185611005565b9350610bc2818560208601611072565b80840191505092915050565b6000610bdb602683610ff4565b91507f4f776e61626c653a206e6577206f776e657220697320746865207a65726f206160008301527f64647265737300000000000000000000000000000000000000000000000000006020830152604082019050919050565b6000610c41600283611005565b91507f19010000000000000000000000000000000000000000000000000000000000006000830152600282019050919050565b6000610c81602e83610ff4565b91507f496e697469616c697a61626c653a20636f6e747261637420697320616c72656160008301527f647920696e697469616c697a65640000000000000000000000000000000000006020830152604082019050919050565b6000610ce7602083610ff4565b91507f4f776e61626c653a2063616c6c6572206973206e6f7420746865206f776e65726000830152602082019050919050565b600060a083016000830151610d326000860182610b20565b5060208301518482036020860152610d4a8282610b64565b9150506040830151610d5f6040860182610d90565b506060830151610d726060860182610d90565b506080830151610d856080860182610d90565b508091505092915050565b610d998161104c565b82525050565b610da88161104c565b82525050565b610db781611056565b82525050565b6000610dc98284610b9d565b915081905092915050565b6000610ddf82610c34565b9150610deb8285610b4d565b602082019150610dfb8284610b4d565b6020820191508190509392505050565b6000602082019050610e206000830184610b2f565b92915050565b6000606082019050610e3b6000830186610b3e565b610e486020830185610b3e565b610e556040830184610b3e565b949350505050565b600060a082019050610e726000830188610b3e565b610e7f6020830187610b3e565b610e8c6040830186610b3e565b610e996060830185610d9f565b610ea66080830184610b2f565b9695505050505050565b6000608082019050610ec56000830187610b3e565b610ed26020830186610dae565b610edf6040830185610b3e565b610eec6060830184610b3e565b95945050505050565b60006020820190508181036000830152610f0e81610bce565b9050919050565b60006020820190508181036000830152610f2e81610c74565b9050919050565b60006020820190508181036000830152610f4e81610cda565b9050919050565b60006020820190508181036000830152610f6f8184610d1a565b905092915050565b6000604051905081810181811067ffffffffffffffff82111715610f9e57610f9d6110af565b5b8060405250919050565b600067ffffffffffffffff821115610fc357610fc26110af565b5b601f19601f8301169050602081019050919050565b600081519050919050565b600082825260208201905092915050565b600082825260208201905092915050565b600081905092915050565b600061101b8261102c565b9050919050565b6000819050919050565b600073ffffffffffffffffffffffffffffffffffffffff82169050919050565b6000819050919050565b600060ff82169050919050565b82818337600083830152505050565b60005b83811015611090578082015181840152602081019050611075565b8381111561109f576000848401525b50505050565b6000819050919050565b7f4e487b7100000000000000000000000000000000000000000000000000000000600052604160045260246000fd5b6000601f19601f8301169050919050565b6110f881611010565b811461110357600080fd5b50565b61110f81611022565b811461111a57600080fd5b50565b6111268161104c565b811461113157600080fd5b50565b61113d81611056565b811461114857600080fd5b5056fe4175746828737472696e6720757365726e616d652c737472696e6720616374696f6e29454950373132446f6d61696e28737472696e67206e616d652c737472696e672076657273696f6e2c75696e7432353620636861696e49642c6164647265737320766572696679696e67436f6e747261637429a264697066735822122071cc51da915da5c1910d90e8ab8004b0b1236d9a811e4712ee803ac5c6fdfd4564736f6c63430008000033",
  "immutableReferences": {},
  "source": "// SPDX-License-Identifier: MIT\n\npragma solidity ^0.8.0;\n\nimport  \"@openzeppelin/contracts-upgradeable/proxy/utils/Initializable.sol\";\nimport  \"@openzeppelin/contracts-upgradeable/access/OwnableUpgradeable.sol\";\n//import \"./IBEP20.sol\";\n//import \"./IVBEP20.sol\";\n\n/// @author [Email](mailto:oluwafemialofe@yahoo.com) [Telegram](t.me/@DreWhyte)\ncontract PiggyFi is Initializable, OwnableUpgradeable{\n\n    ////////////////////////////////////////\n    //                                    //\n    //         STATE VARIABLES            //\n    //                                    //\n    ////////////////////////////////////////\n\n    /// @dev EIP712 struct usage to verify signer\n    struct Auth {\n      string username;\n      string action;\n    }\n\n    string private constant EIP712_DOMAIN  = \"EIP712Domain(string name,string version,uint256 chainId,address verifyingContract)\";\n\n    string private constant AUTH_TYPE = \"Auth(string username,string action)\";\n\n    bytes32 private constant EIP712_DOMAIN_TYPEHASH = keccak256(abi.encodePacked(EIP712_DOMAIN));\n\n    bytes32 private constant AUTH_TYPEHASH = keccak256(abi.encodePacked(AUTH_TYPE));\n\n    bytes32 private DOMAIN_SEPARATOR;\n\n    /// @dev Users profile\n    struct User {\n      address publicKey;\n      string username;\n      uint daiBalance;\n      uint underlyingBalance;\n      uint vTokenBalance;\n    }\n\n    /// @dev Vendors profile\n    /// @dev username unique\n    struct Vendor {\n      address publicKey;\n      string username;\n      uint daiBalance;\n      int[] openOrders;\n    }\n\n    struct Credentials {\n      uint8 v;\n      bytes32 r;\n      bytes32 s;\n    }\n\n    /// @dev Users savings on PiggyFi\n    mapping (address => User) users;\n\n    /// @dev Vendors providing liquidity\n    mapping (address => Vendor) vendors;\n\n    /// @dev For username Lookup\n    mapping (string => bool) usernames;\n\n    ////////////////////////////////////////\n    //                                    //\n    //              EVENTS                //\n    //                                    //\n    ////////////////////////////////////////\n\n    event SignatureExtracted(address indexed signer, string indexed action);\n\n    /// @dev Contructor\n    /// @param _name App name\n    function __PiggyFi_init(string memory _name, string memory _version, uint256 _chainId) public initializer {\n      DOMAIN_SEPARATOR = keccak256(abi.encode(\n              EIP712_DOMAIN_TYPEHASH,\n              keccak256(abi.encodePacked(_name)),       // string _name\n              keccak256(abi.encodePacked(_version)),    // string _version\n              _chainId,                                 // uint256 _chainId\n              address(this)                             // address _verifyingContract\n          ));\n    }\n\n    ////////////////////////////////////////\n    //                                    //\n    //              FUNCTIONS             //\n    //                                    //\n    ////////////////////////////////////////\n\n    function hashAuth(Auth memory auth) private view returns (bytes32) {\n        return keccak256(abi.encodePacked(\n                \"\\x19\\x01\",\n                DOMAIN_SEPARATOR,\n                keccak256(abi.encode(\n                    AUTH_TYPEHASH,\n                    keccak256(bytes(auth.username)),\n                    keccak256(bytes(auth.action))\n                ))\n            ));\n    }\n\n    function getSigner(Auth memory _auth, Credentials memory _credential) public returns (address signer) {\n        signer = ecrecover(hashAuth(_auth), _credential.v, _credential.r, _credential.s);\n\n        emit SignatureExtracted(signer, _auth.action);\n\n        return signer;\n    }\n\n    /// @dev Create a new user profile\n    function newUser(User memory _user) public returns(User memory profile)\n    {\n\n    }\n}\n",
  "sourcePath": "/Users/oluwafemialofe/Sites/PiggyFi/contracts/PiggyFi.sol",
  "compiler": {
    "name": "solc",
    "version": "0.8.0+commit.c7dfd78e.Emscripten.clang"
  },
  "schemaVersion": "3.4.1",
  "updatedAt": "2021-06-22T09:59:01.459Z",
  "devdoc": {
    "author": "[Email](mailto:oluwafemialofe@yahoo.com) [Telegram](t.me/@DreWhyte)",
    "kind": "dev",
    "methods": {
      "__PiggyFi_init(string,string,uint256)": {
        "details": "Contructor",
        "params": {
          "_name": "App name"
        }
      },
      "newUser((address,string,uint256,uint256,uint256))": {
        "details": "Create a new user profile"
      },
      "owner()": {
        "details": "Returns the address of the current owner."
      },
      "renounceOwnership()": {
        "details": "Leaves the contract without owner. It will not be possible to call `onlyOwner` functions anymore. Can only be called by the current owner. NOTE: Renouncing ownership will leave the contract without an owner, thereby removing any functionality that is only available to the owner."
      },
      "transferOwnership(address)": {
        "details": "Transfers ownership of the contract to a new account (`newOwner`). Can only be called by the current owner."
      }
    },
    "stateVariables": {
      "usernames": {
        "details": "For username Lookup"
      },
      "users": {
        "details": "Users savings on PiggyFi"
      },
      "vendors": {
        "details": "Vendors providing liquidity"
      }
    },
    "version": 1
  },
  "userdoc": {
    "kind": "user",
    "methods": {},
    "version": 1
  }
}