{
  "contractName": "PiggyFi",
  "abi": [
    {
      "anonymous": false,
      "inputs": [
        {
          "indexed": true,
          "internalType": "address",
          "name": "previousOwner",
          "type": "address"
        },
        {
          "indexed": true,
          "internalType": "address",
          "name": "newOwner",
          "type": "address"
        }
      ],
      "name": "OwnershipTransferred",
      "type": "event"
    },
    {
      "anonymous": false,
      "inputs": [
        {
          "indexed": true,
          "internalType": "address",
          "name": "signer",
          "type": "address"
        },
        {
          "indexed": true,
          "internalType": "string",
          "name": "action",
          "type": "string"
        }
      ],
      "name": "SignatureExtracted",
      "type": "event"
    },
    {
      "inputs": [],
      "name": "owner",
      "outputs": [
        {
          "internalType": "address",
          "name": "",
          "type": "address"
        }
      ],
      "stateMutability": "view",
      "type": "function"
    },
    {
      "inputs": [],
      "name": "renounceOwnership",
      "outputs": [],
      "stateMutability": "nonpayable",
      "type": "function"
    },
    {
      "inputs": [
        {
          "internalType": "address",
          "name": "newOwner",
          "type": "address"
        }
      ],
      "name": "transferOwnership",
      "outputs": [],
      "stateMutability": "nonpayable",
      "type": "function"
    },
    {
      "inputs": [
        {
          "internalType": "string",
          "name": "_name",
          "type": "string"
        },
        {
          "internalType": "string",
          "name": "_version",
          "type": "string"
        },
        {
          "internalType": "uint256",
          "name": "_chainId",
          "type": "uint256"
        }
      ],
      "name": "__PiggyFi_init",
      "outputs": [],
      "stateMutability": "nonpayable",
      "type": "function"
    },
    {
      "inputs": [
        {
          "components": [
            {
              "internalType": "string",
              "name": "username",
              "type": "string"
            },
            {
              "internalType": "string",
              "name": "action",
              "type": "string"
            }
          ],
          "internalType": "struct PiggyFi.Auth",
          "name": "_auth",
          "type": "tuple"
        },
        {
          "components": [
            {
              "internalType": "uint8",
              "name": "v",
              "type": "uint8"
            },
            {
              "internalType": "bytes32",
              "name": "r",
              "type": "bytes32"
            },
            {
              "internalType": "bytes32",
              "name": "s",
              "type": "bytes32"
            }
          ],
          "internalType": "struct PiggyFi.Credentials",
          "name": "_credential",
          "type": "tuple"
        }
      ],
      "name": "_getSigner",
      "outputs": [
        {
          "internalType": "address",
          "name": "signer",
          "type": "address"
        }
      ],
      "stateMutability": "nonpayable",
      "type": "function"
    },
    {
      "inputs": [
        {
          "components": [
            {
              "internalType": "address",
              "name": "publicKey",
              "type": "address"
            },
            {
              "internalType": "string",
              "name": "username",
              "type": "string"
            },
            {
              "internalType": "uint256",
              "name": "daiBalance",
              "type": "uint256"
            },
            {
              "internalType": "uint256",
              "name": "underlyingBalance",
              "type": "uint256"
            },
            {
              "internalType": "uint256",
              "name": "vTokenBalance",
              "type": "uint256"
            }
          ],
          "internalType": "struct PiggyFi.User",
          "name": "_user",
          "type": "tuple"
        }
      ],
      "name": "newUser",
      "outputs": [
        {
          "components": [
            {
              "internalType": "address",
              "name": "publicKey",
              "type": "address"
            },
            {
              "internalType": "string",
              "name": "username",
              "type": "string"
            },
            {
              "internalType": "uint256",
              "name": "daiBalance",
              "type": "uint256"
            },
            {
              "internalType": "uint256",
              "name": "underlyingBalance",
              "type": "uint256"
            },
            {
              "internalType": "uint256",
              "name": "vTokenBalance",
              "type": "uint256"
            }
          ],
          "internalType": "struct PiggyFi.User",
          "name": "profile",
          "type": "tuple"
        }
      ],
      "stateMutability": "nonpayable",
      "type": "function"
    }
  ],
  "bytecode": "0x608060405234801561001057600080fd5b50611465806100206000396000f3fe608060405234801561001057600080fd5b50600436106100625760003560e01c8063715018a6146100675780638da5cb5b14610071578063ab4bd2191461008f578063c52dc816146100bf578063e720e243146100ef578063f2fde38b1461010b575b600080fd5b61006f610127565b005b610079610264565b6040516100869190611076565b60405180910390f35b6100a960048036038101906100a49190610d4a565b61028e565b6040516100b691906111c0565b60405180910390f35b6100d960048036038101906100d49190610cf6565b61029b565b6040516100e69190611076565b60405180910390f35b61010960048036038101906101049190610c77565b610365565b005b61012560048036038101906101209190610c4e565b610510565b005b61012f6106bc565b73ffffffffffffffffffffffffffffffffffffffff1661014d610264565b73ffffffffffffffffffffffffffffffffffffffff16146101a3576040517f08c379a000000000000000000000000000000000000000000000000000000000815260040161019a906111a0565b60405180910390fd5b600073ffffffffffffffffffffffffffffffffffffffff16603360009054906101000a900473ffffffffffffffffffffffffffffffffffffffff1673ffffffffffffffffffffffffffffffffffffffff167f8be0079c531659141344cd1fd0a4f28419497f9722a3daafe3b4186f6b6457e060405160405180910390a36000603360006101000a81548173ffffffffffffffffffffffffffffffffffffffff021916908373ffffffffffffffffffffffffffffffffffffffff160217905550565b6000603360009054906101000a900473ffffffffffffffffffffffffffffffffffffffff16905090565b6102966109d1565b919050565b600060016102a8846106c4565b836000015184602001518560400151604051600081526020016040526040516102d4949392919061111b565b6020604051602081039080840390855afa1580156102f6573d6000803e3d6000fd5b50505060206040510351905082602001516040516103149190611028565b60405180910390208173ffffffffffffffffffffffffffffffffffffffff167fdb245a39bba5173f382039efd2845ceb457e5d8d94d37f0042a2f1aebca83b4360405160405180910390a392915050565b600060019054906101000a900460ff168061038b575060008054906101000a900460ff16155b6103ca576040517f08c379a00000000000000000000000000000000000000000000000000000000081526004016103c190611180565b60405180910390fd5b60008060019054906101000a900460ff16159050801561041a576001600060016101000a81548160ff02191690831515021790555060016000806101000a81548160ff0219169083151502179055505b6040518060800160405280605281526020016113de605291396040516020016104439190611028565b604051602081830303815290604052805190602001208460405160200161046a9190611028565b60405160208183030381529060405280519060200120846040516020016104919190611028565b6040516020818303038152906040528051906020012084306040516020016104bd9594939291906110c8565b604051602081830303815290604052805190602001206068819055506104e1610776565b6104e961084f565b801561050a5760008060016101000a81548160ff0219169083151502179055505b50505050565b6105186106bc565b73ffffffffffffffffffffffffffffffffffffffff16610536610264565b73ffffffffffffffffffffffffffffffffffffffff161461058c576040517f08c379a0000000000000000000000000000000000000000000000000000000008152600401610583906111a0565b60405180910390fd5b600073ffffffffffffffffffffffffffffffffffffffff168173ffffffffffffffffffffffffffffffffffffffff1614156105fc576040517f08c379a00000000000000000000000000000000000000000000000000000000081526004016105f390611160565b60405180910390fd5b8073ffffffffffffffffffffffffffffffffffffffff16603360009054906101000a900473ffffffffffffffffffffffffffffffffffffffff1673ffffffffffffffffffffffffffffffffffffffff167f8be0079c531659141344cd1fd0a4f28419497f9722a3daafe3b4186f6b6457e060405160405180910390a380603360006101000a81548173ffffffffffffffffffffffffffffffffffffffff021916908373ffffffffffffffffffffffffffffffffffffffff16021790555050565b600033905090565b60006068546040518060600160405280602781526020016113b7602791396040516020016106f29190611028565b6040516020818303038152906040528051906020012083600001518051906020012084602001518051906020012060405160200161073293929190611091565b6040516020818303038152906040528051906020012060405160200161075992919061103f565b604051602081830303815290604052805190602001209050919050565b600060019054906101000a900460ff168061079c575060008054906101000a900460ff16155b6107db576040517f08c379a00000000000000000000000000000000000000000000000000000000081526004016107d290611180565b60405180910390fd5b60008060019054906101000a900460ff16159050801561082b576001600060016101000a81548160ff02191690831515021790555060016000806101000a81548160ff0219169083151502179055505b801561084c5760008060016101000a81548160ff0219169083151502179055505b50565b600060019054906101000a900460ff1680610875575060008054906101000a900460ff16155b6108b4576040517f08c379a00000000000000000000000000000000000000000000000000000000081526004016108ab90611180565b60405180910390fd5b60008060019054906101000a900460ff161590508015610904576001600060016101000a81548160ff02191690831515021790555060016000806101000a81548160ff0219169083151502179055505b600061090e6106bc565b905080603360006101000a81548173ffffffffffffffffffffffffffffffffffffffff021916908373ffffffffffffffffffffffffffffffffffffffff1602179055508073ffffffffffffffffffffffffffffffffffffffff16600073ffffffffffffffffffffffffffffffffffffffff167f8be0079c531659141344cd1fd0a4f28419497f9722a3daafe3b4186f6b6457e060405160405180910390a35080156109ce5760008060016101000a81548160ff0219169083151502179055505b50565b6040518060a00160405280600073ffffffffffffffffffffffffffffffffffffffff168152602001606081526020016000815260200160008152602001600081525090565b6000610a29610a2484611213565b6111e2565b905082815260208101848484011115610a4157600080fd5b610a4c8482856112ce565b509392505050565b600081359050610a638161135a565b92915050565b600081359050610a7881611371565b92915050565b600082601f830112610a8f57600080fd5b8135610a9f848260208601610a16565b91505092915050565b600060408284031215610aba57600080fd5b610ac460406111e2565b9050600082013567ffffffffffffffff811115610ae057600080fd5b610aec84828501610a7e565b600083015250602082013567ffffffffffffffff811115610b0c57600080fd5b610b1884828501610a7e565b60208301525092915050565b600060608284031215610b3657600080fd5b610b4060606111e2565b90506000610b5084828501610c39565b6000830152506020610b6484828501610a69565b6020830152506040610b7884828501610a69565b60408301525092915050565b600060a08284031215610b9657600080fd5b610ba060a06111e2565b90506000610bb084828501610a54565b600083015250602082013567ffffffffffffffff811115610bd057600080fd5b610bdc84828501610a7e565b6020830152506040610bf084828501610c24565b6040830152506060610c0484828501610c24565b6060830152506080610c1884828501610c24565b60808301525092915050565b600081359050610c3381611388565b92915050565b600081359050610c488161139f565b92915050565b600060208284031215610c6057600080fd5b6000610c6e84828501610a54565b91505092915050565b600080600060608486031215610c8c57600080fd5b600084013567ffffffffffffffff811115610ca657600080fd5b610cb286828701610a7e565b935050602084013567ffffffffffffffff811115610ccf57600080fd5b610cdb86828701610a7e565b9250506040610cec86828701610c24565b9150509250925092565b60008060808385031215610d0957600080fd5b600083013567ffffffffffffffff811115610d2357600080fd5b610d2f85828601610aa8565b9250506020610d4085828601610b24565b9150509250929050565b600060208284031215610d5c57600080fd5b600082013567ffffffffffffffff811115610d7657600080fd5b610d8284828501610b84565b91505092915050565b610d948161127b565b82525050565b610da38161127b565b82525050565b610db28161128d565b82525050565b610dc9610dc48261128d565b611310565b82525050565b6000610dda82611243565b610de4818561124e565b9350610df48185602086016112dd565b610dfd81611349565b840191505092915050565b6000610e1382611243565b610e1d8185611270565b9350610e2d8185602086016112dd565b80840191505092915050565b6000610e4660268361125f565b91507f4f776e61626c653a206e6577206f776e657220697320746865207a65726f206160008301527f64647265737300000000000000000000000000000000000000000000000000006020830152604082019050919050565b6000610eac600283611270565b91507f19010000000000000000000000000000000000000000000000000000000000006000830152600282019050919050565b6000610eec602e8361125f565b91507f496e697469616c697a61626c653a20636f6e747261637420697320616c72656160008301527f647920696e697469616c697a65640000000000000000000000000000000000006020830152604082019050919050565b6000610f5260208361125f565b91507f4f776e61626c653a2063616c6c6572206973206e6f7420746865206f776e65726000830152602082019050919050565b600060a083016000830151610f9d6000860182610d8b565b5060208301518482036020860152610fb58282610dcf565b9150506040830151610fca6040860182610ffb565b506060830151610fdd6060860182610ffb565b506080830151610ff06080860182610ffb565b508091505092915050565b611004816112b7565b82525050565b611013816112b7565b82525050565b611022816112c1565b82525050565b60006110348284610e08565b915081905092915050565b600061104a82610e9f565b91506110568285610db8565b6020820191506110668284610db8565b6020820191508190509392505050565b600060208201905061108b6000830184610d9a565b92915050565b60006060820190506110a66000830186610da9565b6110b36020830185610da9565b6110c06040830184610da9565b949350505050565b600060a0820190506110dd6000830188610da9565b6110ea6020830187610da9565b6110f76040830186610da9565b611104606083018561100a565b6111116080830184610d9a565b9695505050505050565b60006080820190506111306000830187610da9565b61113d6020830186611019565b61114a6040830185610da9565b6111576060830184610da9565b95945050505050565b6000602082019050818103600083015261117981610e39565b9050919050565b6000602082019050818103600083015261119981610edf565b9050919050565b600060208201905081810360008301526111b981610f45565b9050919050565b600060208201905081810360008301526111da8184610f85565b905092915050565b6000604051905081810181811067ffffffffffffffff821117156112095761120861131a565b5b8060405250919050565b600067ffffffffffffffff82111561122e5761122d61131a565b5b601f19601f8301169050602081019050919050565b600081519050919050565b600082825260208201905092915050565b600082825260208201905092915050565b600081905092915050565b600061128682611297565b9050919050565b6000819050919050565b600073ffffffffffffffffffffffffffffffffffffffff82169050919050565b6000819050919050565b600060ff82169050919050565b82818337600083830152505050565b60005b838110156112fb5780820151818401526020810190506112e0565b8381111561130a576000848401525b50505050565b6000819050919050565b7f4e487b7100000000000000000000000000000000000000000000000000000000600052604160045260246000fd5b6000601f19601f8301169050919050565b6113638161127b565b811461136e57600080fd5b50565b61137a8161128d565b811461138557600080fd5b50565b611391816112b7565b811461139c57600080fd5b50565b6113a8816112c1565b81146113b357600080fd5b5056fe417574682861646472657373207075626c69634b65792c737472696e6720757365726e616d6529454950373132446f6d61696e28737472696e67206e616d652c737472696e672076657273696f6e2c75696e7432353620636861696e49642c6164647265737320766572696679696e67436f6e747261637429a26469706673582212203cc6a15bdcf670308d3c8bf49125f2ff4ab0cbf3b4472d94e7057613b4180df164736f6c63430008000033",
  "immutableReferences": {},
  "source": "// SPDX-License-Identifier: MIT\n\npragma solidity ^0.8.0;\n\nimport  \"@openzeppelin/contracts-upgradeable/proxy/utils/Initializable.sol\";\nimport  \"@openzeppelin/contracts-upgradeable/access/OwnableUpgradeable.sol\";\nimport \"./IBEP20.sol\";\nimport \"./IVBEP20.sol\";\n\n/// @author [Email](mailto:oluwafemialofe@yahoo.com) [Telegram](t.me/@DreWhyte)\ncontract PiggyFi is Initializable, OwnableUpgradeable {\n\n    ////////////////////////////////////////\n    //                                    //\n    //         STATE VARIABLES            //\n    //                                    //\n    ////////////////////////////////////////\n\n    uint private chainId;\n\n    bytes name;\n\n    bytes version;\n\n    string private constant EIP712_DOMAIN  = \"EIP712Domain(string name,string version,uint256 chainId,address verifyingContract)\";\n\n    string private constant AUTH_TYPE = \"Auth(address publicKey,string username)\";\n\n    bytes32 private constant EIP712_DOMAIN_TYPEHASH = keccak256(abi.encodePacked(EIP712_DOMAIN));\n\n    bytes32 private constant AUTH_TYPEHASH = keccak256(abi.encodePacked(AUTH_TYPE));\n\n    bytes32 private DOMAIN_SEPARATOR;\n\n    /// @dev Users profile\n    struct User {\n      address publicKey;\n      string username;\n      uint daiBalance;\n      uint underlyingBalance;\n      uint vTokenBalance;\n    }\n\n    /// @dev Vendors profile\n    /// @dev username unique\n    struct Vendor {\n      address publicKey;\n      string username;\n      uint daiBalance;\n      int[] openOrders;\n    }\n\n    /// @dev EIP712 struct usage to verify signer\n    struct Auth {\n      string username;\n      string action;\n    }\n\n    struct Credentials {\n      uint8 v;\n      bytes32 r;\n      bytes32 s;\n    }\n\n    /// @dev Users savings on PiggyFi\n    mapping (address => User) users;\n\n    /// @dev Vendors providing liquidity\n    mapping (address => Vendor) vendors;\n\n    /// @dev For username Lookup\n    mapping (string => bool) usernames;\n\n    ////////////////////////////////////////\n    //                                    //\n    //              EVENTS                //\n    //                                    //\n    ////////////////////////////////////////\n\n    event SignatureExtracted(address indexed signer, string indexed action);\n\n    /// @dev Contructor\n    /// @param _name App name\n    function __PiggyFi_init(string memory _name, string memory _version, uint256 _chainId) public initializer {\n\n      DOMAIN_SEPARATOR = keccak256(abi.encode(\n              EIP712_DOMAIN_TYPEHASH,\n              keccak256(abi.encodePacked(_name)),       // string _name\n              keccak256(abi.encodePacked(_version)),    // string _version\n              _chainId,                                 // uint256 _chainId\n              address(this)                             // address _verifyingContract\n          ));\n\n      __Context_init_unchained();\n      __Ownable_init_unchained();\n    }\n\n    ////////////////////////////////////////\n    //                                    //\n    //              FUNCTIONS             //\n    //                                    //\n    ////////////////////////////////////////\n\n    function hashAuth(Auth memory auth) private view returns (bytes32) {\n        return keccak256(abi.encodePacked(\n                \"\\x19\\x01\",\n                DOMAIN_SEPARATOR,\n                keccak256(abi.encode(\n                    AUTH_TYPEHASH,\n                    keccak256(bytes(auth.username)),\n                    keccak256(bytes(auth.action))\n                ))\n            ));\n    }\n\n    function _getSigner(Auth memory _auth, Credentials memory _credential) public returns (address signer) {\n        signer = ecrecover(hashAuth(_auth), _credential.v, _credential.r, _credential.s);\n\n        emit SignatureExtracted(signer, _auth.action);\n\n        return signer;\n    }\n\n    /// @dev Create a new user profile\n    function newUser(User memory _user) public returns(User memory profile)\n    {\n\n    }\n}\n",
  "sourcePath": "/Users/oluwafemialofe/Sites/PiggyFi/contracts/PiggyFi.sol",
  "compiler": {
    "name": "solc",
    "version": "0.8.0+commit.c7dfd78e.Emscripten.clang"
  },
  "schemaVersion": "3.4.1",
  "updatedAt": "2021-06-21T17:01:44.202Z",
  "devdoc": {
    "author": "[Email](mailto:oluwafemialofe@yahoo.com) [Telegram](t.me/@DreWhyte)",
    "kind": "dev",
    "methods": {
      "__PiggyFi_init(string,string,uint256)": {
        "details": "Contructor",
        "params": {
          "_name": "App name"
        }
      },
      "newUser((address,string,uint256,uint256,uint256))": {
        "details": "Create a new user profile"
      },
      "owner()": {
        "details": "Returns the address of the current owner."
      },
      "renounceOwnership()": {
        "details": "Leaves the contract without owner. It will not be possible to call `onlyOwner` functions anymore. Can only be called by the current owner. NOTE: Renouncing ownership will leave the contract without an owner, thereby removing any functionality that is only available to the owner."
      },
      "transferOwnership(address)": {
        "details": "Transfers ownership of the contract to a new account (`newOwner`). Can only be called by the current owner."
      }
    },
    "stateVariables": {
      "usernames": {
        "details": "For username Lookup"
      },
      "users": {
        "details": "Users savings on PiggyFi"
      },
      "vendors": {
        "details": "Vendors providing liquidity"
      }
    },
    "version": 1
  },
  "userdoc": {
    "kind": "user",
    "methods": {},
    "version": 1
  }
}