{
  "contractName": "PiggyFi",
  "abi": [
    {
      "anonymous": false,
      "inputs": [
        {
          "indexed": true,
          "internalType": "address",
          "name": "previousOwner",
          "type": "address"
        },
        {
          "indexed": true,
          "internalType": "address",
          "name": "newOwner",
          "type": "address"
        }
      ],
      "name": "OwnershipTransferred",
      "type": "event"
    },
    {
      "anonymous": false,
      "inputs": [
        {
          "indexed": true,
          "internalType": "address",
          "name": "signer",
          "type": "address"
        },
        {
          "indexed": true,
          "internalType": "string",
          "name": "action",
          "type": "string"
        }
      ],
      "name": "SignatureExtracted",
      "type": "event"
    },
    {
      "inputs": [],
      "name": "owner",
      "outputs": [
        {
          "internalType": "address",
          "name": "",
          "type": "address"
        }
      ],
      "stateMutability": "view",
      "type": "function"
    },
    {
      "inputs": [],
      "name": "renounceOwnership",
      "outputs": [],
      "stateMutability": "nonpayable",
      "type": "function"
    },
    {
      "inputs": [
        {
          "internalType": "address",
          "name": "newOwner",
          "type": "address"
        }
      ],
      "name": "transferOwnership",
      "outputs": [],
      "stateMutability": "nonpayable",
      "type": "function"
    },
    {
      "inputs": [
        {
          "internalType": "string",
          "name": "_name",
          "type": "string"
        },
        {
          "internalType": "string",
          "name": "_version",
          "type": "string"
        },
        {
          "internalType": "uint256",
          "name": "_chainId",
          "type": "uint256"
        }
      ],
      "name": "__PiggyFi_init",
      "outputs": [],
      "stateMutability": "nonpayable",
      "type": "function"
    },
    {
      "inputs": [
        {
          "components": [
            {
              "internalType": "string",
              "name": "username",
              "type": "string"
            },
            {
              "internalType": "string",
              "name": "action",
              "type": "string"
            }
          ],
          "internalType": "struct PiggyFi.Auth",
          "name": "_auth",
          "type": "tuple"
        },
        {
          "components": [
            {
              "internalType": "uint8",
              "name": "v",
              "type": "uint8"
            },
            {
              "internalType": "bytes32",
              "name": "r",
              "type": "bytes32"
            },
            {
              "internalType": "bytes32",
              "name": "s",
              "type": "bytes32"
            }
          ],
          "internalType": "struct PiggyFi.Credential",
          "name": "_credential",
          "type": "tuple"
        }
      ],
      "name": "getSigner",
      "outputs": [
        {
          "internalType": "address",
          "name": "signer",
          "type": "address"
        }
      ],
      "stateMutability": "nonpayable",
      "type": "function"
    },
    {
      "inputs": [
        {
          "components": [
            {
              "internalType": "address",
              "name": "publicKey",
              "type": "address"
            },
            {
              "internalType": "string",
              "name": "username",
              "type": "string"
            },
            {
              "internalType": "uint256",
              "name": "daiBalance",
              "type": "uint256"
            },
            {
              "internalType": "uint256",
              "name": "underlyingBalance",
              "type": "uint256"
            },
            {
              "internalType": "uint256",
              "name": "vTokenBalance",
              "type": "uint256"
            },
            {
              "internalType": "bool",
              "name": "isUser",
              "type": "bool"
            }
          ],
          "internalType": "struct PiggyFi.User",
          "name": "_user",
          "type": "tuple"
        },
        {
          "components": [
            {
              "internalType": "uint8",
              "name": "v",
              "type": "uint8"
            },
            {
              "internalType": "bytes32",
              "name": "r",
              "type": "bytes32"
            },
            {
              "internalType": "bytes32",
              "name": "s",
              "type": "bytes32"
            }
          ],
          "internalType": "struct PiggyFi.Credential",
          "name": "_credential",
          "type": "tuple"
        }
      ],
      "name": "newUser",
      "outputs": [
        {
          "components": [
            {
              "internalType": "address",
              "name": "publicKey",
              "type": "address"
            },
            {
              "internalType": "string",
              "name": "username",
              "type": "string"
            },
            {
              "internalType": "uint256",
              "name": "daiBalance",
              "type": "uint256"
            },
            {
              "internalType": "uint256",
              "name": "underlyingBalance",
              "type": "uint256"
            },
            {
              "internalType": "uint256",
              "name": "vTokenBalance",
              "type": "uint256"
            },
            {
              "internalType": "bool",
              "name": "isUser",
              "type": "bool"
            }
          ],
          "internalType": "struct PiggyFi.User",
          "name": "profile",
          "type": "tuple"
        }
      ],
      "stateMutability": "nonpayable",
      "type": "function"
    }
  ],
  "bytecode": "0x608060405234801561001057600080fd5b5061188e806100206000396000f3fe608060405234801561001057600080fd5b50600436106100625760003560e01c80633fa6ab071461006757806344119c3d14610097578063715018a6146100c75780638da5cb5b146100d1578063e720e243146100ef578063f2fde38b1461010b575b600080fd5b610081600480360381019061007c9190610ffe565b610127565b60405161008e9190611569565b60405180910390f35b6100b160048036038101906100ac9190610faa565b61057e565b6040516100be91906113df565b60405180910390f35b6100cf610648565b005b6100d9610785565b6040516100e691906113df565b60405180910390f35b61010960048036038101906101049190610f2b565b6107af565b005b61012560048036038101906101209190610f02565b61094a565b005b61012f610bb0565b60011515606884602001516040516101479190611391565b908152602001604051809103902060009054906101000a900460ff16151514156101a6576040517f08c379a000000000000000000000000000000000000000000000000000000000815260040161019d906114e9565b60405180910390fd5b60006040518060400160405280856020015181526020016040518060400160405280600781526020017f6e6577557365720000000000000000000000000000000000000000000000000081525081525090506000610204828561057e565b905060011515606660008373ffffffffffffffffffffffffffffffffffffffff1673ffffffffffffffffffffffffffffffffffffffff16815260200190815260200160002060050160009054906101000a900460ff161515141561029d576040517f08c379a000000000000000000000000000000000000000000000000000000000815260040161029490611549565b60405180910390fd5b6001606886602001516040516102b39190611391565b908152602001604051809103902060006101000a81548160ff0219169083151502179055506040518060c001604052808273ffffffffffffffffffffffffffffffffffffffff1681526020018660200151815260200160008152602001600081526020016000815260200160011515815250606660008373ffffffffffffffffffffffffffffffffffffffff1673ffffffffffffffffffffffffffffffffffffffff16815260200190815260200160002060008201518160000160006101000a81548173ffffffffffffffffffffffffffffffffffffffff021916908373ffffffffffffffffffffffffffffffffffffffff16021790555060208201518160010190805190602001906103c7929190610bfe565b5060408201518160020155606082015181600301556080820151816004015560a08201518160050160006101000a81548160ff021916908315150217905550905050606660008273ffffffffffffffffffffffffffffffffffffffff1673ffffffffffffffffffffffffffffffffffffffff1681526020019081526020016000206040518060c00160405290816000820160009054906101000a900473ffffffffffffffffffffffffffffffffffffffff1673ffffffffffffffffffffffffffffffffffffffff1673ffffffffffffffffffffffffffffffffffffffff1681526020016001820180546104b9906116c5565b80601f01602080910402602001604051908101604052809291908181526020018280546104e5906116c5565b80156105325780601f1061050757610100808354040283529160200191610532565b820191906000526020600020905b81548152906001019060200180831161051557829003601f168201915b505050505081526020016002820154815260200160038201548152602001600482015481526020016005820160009054906101000a900460ff1615151515815250509250505092915050565b6000600161058b84610af6565b836000015184602001518560400151604051600081526020016040526040516105b79493929190611484565b6020604051602081039080840390855afa1580156105d9573d6000803e3d6000fd5b50505060206040510351905082602001516040516105f79190611391565b60405180910390208173ffffffffffffffffffffffffffffffffffffffff167fdb245a39bba5173f382039efd2845ceb457e5d8d94d37f0042a2f1aebca83b4360405160405180910390a392915050565b610650610ba8565b73ffffffffffffffffffffffffffffffffffffffff1661066e610785565b73ffffffffffffffffffffffffffffffffffffffff16146106c4576040517f08c379a00000000000000000000000000000000000000000000000000000000081526004016106bb90611529565b60405180910390fd5b600073ffffffffffffffffffffffffffffffffffffffff16603360009054906101000a900473ffffffffffffffffffffffffffffffffffffffff1673ffffffffffffffffffffffffffffffffffffffff167f8be0079c531659141344cd1fd0a4f28419497f9722a3daafe3b4186f6b6457e060405160405180910390a36000603360006101000a81548173ffffffffffffffffffffffffffffffffffffffff021916908373ffffffffffffffffffffffffffffffffffffffff160217905550565b6000603360009054906101000a900473ffffffffffffffffffffffffffffffffffffffff16905090565b600060019054906101000a900460ff16806107d5575060008054906101000a900460ff16155b610814576040517f08c379a000000000000000000000000000000000000000000000000000000000815260040161080b90611509565b60405180910390fd5b60008060019054906101000a900460ff161590508015610864576001600060016101000a81548160ff02191690831515021790555060016000806101000a81548160ff0219169083151502179055505b6040518060800160405280605281526020016118076052913960405160200161088d9190611391565b60405160208183030381529060405280519060200120846040516020016108b49190611391565b60405160208183030381529060405280519060200120846040516020016108db9190611391565b604051602081830303815290604052805190602001208430604051602001610907959493929190611431565b6040516020818303038152906040528051906020012060658190555080156109445760008060016101000a81548160ff0219169083151502179055505b50505050565b610952610ba8565b73ffffffffffffffffffffffffffffffffffffffff16610970610785565b73ffffffffffffffffffffffffffffffffffffffff16146109c6576040517f08c379a00000000000000000000000000000000000000000000000000000000081526004016109bd90611529565b60405180910390fd5b600073ffffffffffffffffffffffffffffffffffffffff168173ffffffffffffffffffffffffffffffffffffffff161415610a36576040517f08c379a0000000000000000000000000000000000000000000000000000000008152600401610a2d906114c9565b60405180910390fd5b8073ffffffffffffffffffffffffffffffffffffffff16603360009054906101000a900473ffffffffffffffffffffffffffffffffffffffff1673ffffffffffffffffffffffffffffffffffffffff167f8be0079c531659141344cd1fd0a4f28419497f9722a3daafe3b4186f6b6457e060405160405180910390a380603360006101000a81548173ffffffffffffffffffffffffffffffffffffffff021916908373ffffffffffffffffffffffffffffffffffffffff16021790555050565b60006065546040518060600160405280602381526020016117e460239139604051602001610b249190611391565b60405160208183030381529060405280519060200120836000015180519060200120846020015180519060200120604051602001610b64939291906113fa565b60405160208183030381529060405280519060200120604051602001610b8b9291906113a8565b604051602081830303815290604052805190602001209050919050565b600033905090565b6040518060c00160405280600073ffffffffffffffffffffffffffffffffffffffff168152602001606081526020016000815260200160008152602001600081526020016000151581525090565b828054610c0a906116c5565b90600052602060002090601f016020900481019282610c2c5760008555610c73565b82601f10610c4557805160ff1916838001178555610c73565b82800160010185558215610c73579182015b82811115610c72578251825591602001919060010190610c57565b5b509050610c809190610c84565b5090565b5b80821115610c9d576000816000905550600101610c85565b5090565b6000610cb4610caf846115bc565b61158b565b905082815260208101848484011115610ccc57600080fd5b610cd7848285611683565b509392505050565b600081359050610cee81611770565b92915050565b600081359050610d0381611787565b92915050565b600081359050610d188161179e565b92915050565b600082601f830112610d2f57600080fd5b8135610d3f848260208601610ca1565b91505092915050565b600060408284031215610d5a57600080fd5b610d64604061158b565b9050600082013567ffffffffffffffff811115610d8057600080fd5b610d8c84828501610d1e565b600083015250602082013567ffffffffffffffff811115610dac57600080fd5b610db884828501610d1e565b60208301525092915050565b600060608284031215610dd657600080fd5b610de0606061158b565b90506000610df084828501610eed565b6000830152506020610e0484828501610d09565b6020830152506040610e1884828501610d09565b60408301525092915050565b600060c08284031215610e3657600080fd5b610e4060c061158b565b90506000610e5084828501610cdf565b600083015250602082013567ffffffffffffffff811115610e7057600080fd5b610e7c84828501610d1e565b6020830152506040610e9084828501610ed8565b6040830152506060610ea484828501610ed8565b6060830152506080610eb884828501610ed8565b60808301525060a0610ecc84828501610cf4565b60a08301525092915050565b600081359050610ee7816117b5565b92915050565b600081359050610efc816117cc565b92915050565b600060208284031215610f1457600080fd5b6000610f2284828501610cdf565b91505092915050565b600080600060608486031215610f4057600080fd5b600084013567ffffffffffffffff811115610f5a57600080fd5b610f6686828701610d1e565b935050602084013567ffffffffffffffff811115610f8357600080fd5b610f8f86828701610d1e565b9250506040610fa086828701610ed8565b9150509250925092565b60008060808385031215610fbd57600080fd5b600083013567ffffffffffffffff811115610fd757600080fd5b610fe385828601610d48565b9250506020610ff485828601610dc4565b9150509250929050565b6000806080838503121561101157600080fd5b600083013567ffffffffffffffff81111561102b57600080fd5b61103785828601610e24565b925050602061104885828601610dc4565b9150509250929050565b61105b81611624565b82525050565b61106a81611624565b82525050565b61107981611636565b82525050565b61108881611642565b82525050565b61109f61109a82611642565b6116f7565b82525050565b60006110b0826115ec565b6110ba81856115f7565b93506110ca818560208601611692565b6110d38161175f565b840191505092915050565b60006110e9826115ec565b6110f38185611619565b9350611103818560208601611692565b80840191505092915050565b600061111c602683611608565b91507f4f776e61626c653a206e6577206f776e657220697320746865207a65726f206160008301527f64647265737300000000000000000000000000000000000000000000000000006020830152604082019050919050565b6000611182600283611619565b91507f19010000000000000000000000000000000000000000000000000000000000006000830152600282019050919050565b60006111c2601683611608565b91507f557365726e616d6520616c72656164792074616b656e000000000000000000006000830152602082019050919050565b6000611202602e83611608565b91507f496e697469616c697a61626c653a20636f6e747261637420697320616c72656160008301527f647920696e697469616c697a65640000000000000000000000000000000000006020830152604082019050919050565b6000611268602083611608565b91507f4f776e61626c653a2063616c6c6572206973206e6f7420746865206f776e65726000830152602082019050919050565b60006112a8601583611608565b91507f4163636f756e7420616c726561647920657869737400000000000000000000006000830152602082019050919050565b600060c0830160008301516112f36000860182611052565b506020830151848203602086015261130b82826110a5565b91505060408301516113206040860182611364565b5060608301516113336060860182611364565b5060808301516113466080860182611364565b5060a083015161135960a0860182611070565b508091505092915050565b61136d8161166c565b82525050565b61137c8161166c565b82525050565b61138b81611676565b82525050565b600061139d82846110de565b915081905092915050565b60006113b382611175565b91506113bf828561108e565b6020820191506113cf828461108e565b6020820191508190509392505050565b60006020820190506113f46000830184611061565b92915050565b600060608201905061140f600083018661107f565b61141c602083018561107f565b611429604083018461107f565b949350505050565b600060a082019050611446600083018861107f565b611453602083018761107f565b611460604083018661107f565b61146d6060830185611373565b61147a6080830184611061565b9695505050505050565b6000608082019050611499600083018761107f565b6114a66020830186611382565b6114b3604083018561107f565b6114c0606083018461107f565b95945050505050565b600060208201905081810360008301526114e28161110f565b9050919050565b60006020820190508181036000830152611502816111b5565b9050919050565b60006020820190508181036000830152611522816111f5565b9050919050565b600060208201905081810360008301526115428161125b565b9050919050565b600060208201905081810360008301526115628161129b565b9050919050565b6000602082019050818103600083015261158381846112db565b905092915050565b6000604051905081810181811067ffffffffffffffff821117156115b2576115b1611730565b5b8060405250919050565b600067ffffffffffffffff8211156115d7576115d6611730565b5b601f19601f8301169050602081019050919050565b600081519050919050565b600082825260208201905092915050565b600082825260208201905092915050565b600081905092915050565b600061162f8261164c565b9050919050565b60008115159050919050565b6000819050919050565b600073ffffffffffffffffffffffffffffffffffffffff82169050919050565b6000819050919050565b600060ff82169050919050565b82818337600083830152505050565b60005b838110156116b0578082015181840152602081019050611695565b838111156116bf576000848401525b50505050565b600060028204905060018216806116dd57607f821691505b602082108114156116f1576116f0611701565b5b50919050565b6000819050919050565b7f4e487b7100000000000000000000000000000000000000000000000000000000600052602260045260246000fd5b7f4e487b7100000000000000000000000000000000000000000000000000000000600052604160045260246000fd5b6000601f19601f8301169050919050565b61177981611624565b811461178457600080fd5b50565b61179081611636565b811461179b57600080fd5b50565b6117a781611642565b81146117b257600080fd5b50565b6117be8161166c565b81146117c957600080fd5b50565b6117d581611676565b81146117e057600080fd5b5056fe4175746828737472696e6720757365726e616d652c737472696e6720616374696f6e29454950373132446f6d61696e28737472696e67206e616d652c737472696e672076657273696f6e2c75696e7432353620636861696e49642c6164647265737320766572696679696e67436f6e747261637429a2646970667358221220315e7ade651abfa891f98329e5d11316746123c7982c04bac18a8b56e1bfe43d64736f6c63430008000033",
  "immutableReferences": {},
  "source": "// SPDX-License-Identifier: MIT\n\npragma solidity ^0.8.0;\n\nimport  \"@openzeppelin/contracts-upgradeable/proxy/utils/Initializable.sol\";\nimport  \"@openzeppelin/contracts-upgradeable/access/OwnableUpgradeable.sol\";\nimport \"./IBEP20.sol\";\nimport \"./IVBEP20.sol\";\n\n/// @author [Email](mailto:oluwafemialofe@yahoo.com) [Telegram](t.me/@DreWhyte)\ncontract PiggyFi is Initializable, OwnableUpgradeable{\n\n    ////////////////////////////////////////\n    //                                    //\n    //         STATE VARIABLES            //\n    //                                    //\n    ////////////////////////////////////////\n\n    /// @dev EIP712 struct usage to verify signer\n    struct Auth {\n      string username;\n      string action;\n    }\n\n    string private constant EIP712_DOMAIN  = \"EIP712Domain(string name,string version,uint256 chainId,address verifyingContract)\";\n\n    string private constant AUTH_TYPE = \"Auth(string username,string action)\";\n\n    bytes32 private constant EIP712_DOMAIN_TYPEHASH = keccak256(abi.encodePacked(EIP712_DOMAIN));\n\n    bytes32 private constant AUTH_TYPEHASH = keccak256(abi.encodePacked(AUTH_TYPE));\n\n    bytes32 private DOMAIN_SEPARATOR;\n\n    /// @dev Users profile\n    struct User {\n      address publicKey;\n      string username;\n      uint daiBalance;\n      uint underlyingBalance;\n      uint vTokenBalance;\n      bool isUser;\n    }\n\n    /// @dev Vendors profile\n    /// @dev username unique\n    struct Vendor {\n      address publicKey;\n      string username;\n      uint daiBalance;\n      int[] openOrders;\n    }\n\n    struct Credential {\n      uint8 v;\n      bytes32 r;\n      bytes32 s;\n    }\n\n    /// @dev Users savings on PiggyFi\n    mapping (address => User) users;\n\n    /// @dev Vendors providing liquidity\n    mapping (address => Vendor) vendors;\n\n    /// @dev For username Lookup\n    mapping (string => bool) usernames;\n\n    ////////////////////////////////////////\n    //                                    //\n    //              EVENTS                //\n    //                                    //\n    ////////////////////////////////////////\n\n    event SignatureExtracted(address indexed signer, string indexed action);\n\n    /// @dev Contructor\n    /// @param _name App name\n    function __PiggyFi_init(string memory _name, string memory _version, uint256 _chainId) public initializer {\n      DOMAIN_SEPARATOR = keccak256(abi.encode(\n              EIP712_DOMAIN_TYPEHASH,\n              keccak256(abi.encodePacked(_name)),       // string _name\n              keccak256(abi.encodePacked(_version)),    // string _version\n              _chainId,                                 // uint256 _chainId\n              address(this)                             // address _verifyingContract\n          ));\n    }\n\n    ////////////////////////////////////////\n    //                                    //\n    //              FUNCTIONS             //\n    //                                    //\n    ////////////////////////////////////////\n\n    function hashAuth(Auth memory auth) private view returns (bytes32) {\n        return keccak256(abi.encodePacked(\n                \"\\x19\\x01\",\n                DOMAIN_SEPARATOR,\n                keccak256(abi.encode(\n                    AUTH_TYPEHASH,\n                    keccak256(bytes(auth.username)),\n                    keccak256(bytes(auth.action))\n                ))\n            ));\n    }\n\n    function getSigner(Auth memory _auth, Credential memory _credential) public returns (address signer) {\n        signer = ecrecover(hashAuth(_auth), _credential.v, _credential.r, _credential.s);\n\n        emit SignatureExtracted(signer, _auth.action);\n\n        return signer;\n    }\n\n    /// @dev Create a new user profile\n    /// @param _credential signature details\n    function newUser(User memory _user, Credential memory _credential) public returns(User memory profile)\n    {\n        require(usernames[_user.username] != true, 'Username already taken');\n\n        Auth memory _auth = Auth({\n            username: _user.username,\n            action: 'newUser'\n        });\n\n        address signer = getSigner(_auth, _credential);\n\n        require(users[signer].isUser != true, 'Account already exist');\n\n        usernames[_user.username] = true;\n\n        users[signer] = User({\n          publicKey: signer,\n          username: _user.username,\n          daiBalance: 0,\n          underlyingBalance: 0,\n          vTokenBalance: 0,\n          isUser: true\n        });\n\n        return users[signer];\n    }\n}\n",
  "sourcePath": "/Users/oluwafemialofe/Sites/PiggyFi/contracts/PiggyFi.sol",
  "compiler": {
    "name": "solc",
    "version": "0.8.0+commit.c7dfd78e.Emscripten.clang"
  },
  "schemaVersion": "3.4.1",
  "updatedAt": "2021-06-23T19:48:17.651Z",
  "devdoc": {
    "author": "[Email](mailto:oluwafemialofe@yahoo.com) [Telegram](t.me/@DreWhyte)",
    "kind": "dev",
    "methods": {
      "__PiggyFi_init(string,string,uint256)": {
        "details": "Contructor",
        "params": {
          "_name": "App name"
        }
      },
      "newUser((address,string,uint256,uint256,uint256,bool),(uint8,bytes32,bytes32))": {
        "details": "Create a new user profile",
        "params": {
          "_credential": "signature details"
        }
      },
      "owner()": {
        "details": "Returns the address of the current owner."
      },
      "renounceOwnership()": {
        "details": "Leaves the contract without owner. It will not be possible to call `onlyOwner` functions anymore. Can only be called by the current owner. NOTE: Renouncing ownership will leave the contract without an owner, thereby removing any functionality that is only available to the owner."
      },
      "transferOwnership(address)": {
        "details": "Transfers ownership of the contract to a new account (`newOwner`). Can only be called by the current owner."
      }
    },
    "stateVariables": {
      "usernames": {
        "details": "For username Lookup"
      },
      "users": {
        "details": "Users savings on PiggyFi"
      },
      "vendors": {
        "details": "Vendors providing liquidity"
      }
    },
    "version": 1
  },
  "userdoc": {
    "kind": "user",
    "methods": {},
    "version": 1
  }
}